:02000000E82BEB
:1006E0003F3406345B344F3466346D347D34073424
:1006F0007F346F3483168501860183129A019B0132
:1007000083129C019D0183129801990183120514A3
:1007100085101C080C3E84008313000886000D30F1
:100720009700FB309600960B932B970B932B982BEF
:100730008312051085141A080C3E840083130008E8
:1007400086000D309700FB309600960BA52B970B7B
:10075000A52BAA2B0130831298070318990A0030A1
:1007600099071908803ACF0080304F02031DBA2B39
:1007700001301802031CBD2BBE2B862B01308312C7
:100780009C0703189D0A00309D071D08803ACF0082
:1007900080304F02031DCE2B0A301C02031CD12BCC
:1007A000D22B832B013083129A0703189B0A003047
:1007B0009B071B08803ACF0080304F02031DE22BBD
:1007C0000A301A02031CE52BE62B802B7D2B002818
:1007D00070238C0071238D0072238E0073238F0091
:1007E0007423900075239100762392007723930061
:1007F00078239400792395009C019D0183017A2B35
:02400E00F93F78
:00000001FF
